:04013F0002081000A2
:0F012800758920758780758DFD759850D28E2250
:080137008F993099FDC2992255
:10008F00E4FDFCD3ED9FEE6480F8EC64809850148F
:10009F00E4FBFA0BBB00010AEBF44A70F60DBD004E
:0400AF00010C80DFE1
:0100B300222A
:1000B400C3E508648094B04006750820750900857E
:1000C4000982850883EFF00509E509700205082215
:1000D400D280D281D2B7C2B6902003749BF07F1E27
:1000E4007E0012008FC280C281C2B7D2B602008FD6
:10011400C291D290D2912097FDC2901200D4902027
:0301240000E0FFF9
:0101270022B5
:1000F4001201281201148F0A7F647E0012008FAF50
:100104000A1200B47F6412008FAF0A12013780E331
:03000000020003F8
:0C000300787FE4F6D8FD75810A02004AFF
:10000F000200F4E493A3F8E493A34003F68001F213
:10001F0008DFF48029E493A3F85407240CC8C333F2
:10002F00C4540F4420C8834004F456800146F6DFC1
:10003F00E4800B010204081020408090013FE47E11
:10004F00019360BCA3FF543F30E509541FFEE493B6
:10005F00A360010ECF54C025E060A840B8E493A37D
:10006F00FAE493A3F8E493A3C8C582C8CAC583CAA8
:10007F00F0A3C8C582C8CAC583CADFE9DEE780BE60
:0101430000BB
:00000001FF
